:100000000C947D000C94C5080C944C080C945E056F
:100010000C9448060C94C5080C94C5080C94C508AB
:100020000C94C5080C94C5080C94C5080C94C5081C
:100030000C94C5080C94C5080C94C5080C94C5080C
:100040000C94C5080C94C5080C94C5080C94C508FC
:100050000C94C5080C94C5080C94C5080C94C508EC
:100060000C94C5080C94C5080C94C5080C94C508DC
:100070000C94C5080C94C5080C94DA040C9478060A
:100080000C94A5060C94DF070C94C5080C94C508C5
:100090000C94C5080C94C5080C94C5080C94C508AC
:1000A0000C94C5080C94C5080C94C5080C94C5089C
:1000B0000C94C5080C94C5080C94C5080C94C5088C
:1000C0000C94C5080C94C5080C94C5080C94C5087C
:1000D0000C94C5080C94C5080C94C5080C94C5086C
:1000E0000C94C5080C94C5084000404C80404C401E
:1000F0005000118E4050405E800011241FBECFEF93
:10010000CDBFDFE7DEBFE8EEF0E040E019C0B79119
:10011000A79137912791079107FD0EC0979187917D
:10012000EF01F92FE82F0BBF07900D92A217B3072D
:10013000D9F7FE011BBE04C01D92A217B307E1F759
:10014000E93FF40721F70E9477080C94A700F89480
:02015000FFCFDF
:1001520044757479206379636C653D256C752E2531
:10016200642525200D0A4672657175656E63793DB9
:09017200256C75487A0D0A0A009B
:10017C002F923F924F926F927F928F929F92AF925B
:10018C00BF92CF92DF92EF92FF920F931F93CF9378
:10019C00DF93CDB7DEB76297CDBFDEBF6C013A01FE
:1001AC00862E7901FC0117821086848181FFEBC1B8
:1001BC009E012F5F3F4F2C873D87C901A0E8888B9C
:1001CC00998BAA8B9FE3992EF301582D0E94AB08B3
:1001DC00862F662309F4D3C1482D93012F5F3F4F1F
:1001EC004F4F653219F03901842E0BC0F901542F91
:1001FC000E94AB08862F92E0690E711C811C65323F
:10020C0029F4B60190E00E949D05DECFB12C00E0F0
:10021C0010E01032A0F48B3269F030F4803259F0D7
:10022C00833269F410612CC08D3239F0803339F48B
:10023C00116026C01260146023C0186021C017FD25
:10024C002AC090ED980F9A3078F416FF06C0AAE0F9
:10025C00BA9E900D1124B92E13C0EAE00E9F900D9A
:10026C001124092F10620CC08E3221F416FD87C1A7
:10027C00106406C08C3611F4106802C0883659F42C
:10028C00F301582D0E94AB08862FFFEF6F1A7F0ADF
:10029C008F0A6111BECF982F9F7D9554933028F40F
:1002AC0024E0E20EF11C99820FC0833631F08337C3
:1002BC0091F0833509F064C027C0F70180818983F0
:1002CC0097012E5F3F4F7901288839884A88AA24E4
:1002DC00A394B12C17C0A7014D5F5F4F4E875F876A
:1002EC00F70120803180428016FF03C04B2D50E077
:1002FC0002C04FEF5FEF842DB1010E94C3075C0178
:10030C00EE84FF841F7718C097012D5F3F4F2E8717
:10031C003F87F70120803180428016FF03C04B2DB0
:10032C0050E002C04FEF5FEF842DB1010E94C30774
:10033C005C011068EE84FF8413FD1EC0802F90E0DA
:10034C00A816B906C8F4B60180E290E00E949D059B
:10035C000150F4CFF101542D0E94AB08862FFFEF12
:10036C002F1A3F0A4F0AB60190E00E949D05011119
:10037C00015021E0A21AB108A114B10459F7F5C03B
:10038C00843611F0893671F5F70117FF08C06081CA
:10039C0071818281938197012C5F3F4F09C06081ED
:1003AC007181072E000C880B990B97012E5F3F4F24
:1003BC0079011F76312E97FF0AC090958095709524
:1003CC0061957F4F8F4F9F4F312F3068332E2AE02E
:1003DC0030E0AE014F5F5F4F0E947C04482E4C858D
:1003EC00441A4AC0853729F41F7EA12E2AE030E03A
:1003FC0025C0512F597FA52E8F36C1F018F48835A2
:10040C0079F0BDC0803719F0883721F0B8C0852F3E
:10041C008061A82EA4FE0DC09A2D9460A92E09C04F
:10042C0014FF0AC0A52FA660AA2E06C028E030E053
:10043C0005C020E130E002C020E132E0F701A7FE68
:10044C0008C06081718182819381A7014C5F5F4FED
:10045C0007C06081718180E090E0A7014E5F5F4F23
:10046C007A01AE014F5F5F4F0E947C04482E5C8581
:10047C00451A8A2D8F77382E36FE0DC0932D9E7F10
:10048C00A92E4B1458F434FE0BC032FC09C0A32D1A
:10049C00AE7EAA2E05C0142DA32C03C0142D01C0B2
:1004AC001B2DA4FE0EC0FE01E40DF11D80818033D6
:1004BC0021F4EA2DE97EAE2E08C0A2FE05C01E5F17
:1004CC0004C08A2D867809F01F5FA3FC11C0A0FE22
:1004DC0006C0101788F4040DB02EB11A0EC01017F8
:1004EC0060F4B60180E290E00E949D051F5FF7CF9B
:1004FC00101718F4011B02C0B42C00E0A4FE10C0AD
:10050C00B60180E390E00E949D05A2FE17C0A1FCFD
:10051C0003C088E790E002C088E590E0B6010CC00B
:10052C008A2D867859F0A1FE02C08BE201C080E2D0
:10053C00A7FC8DE2B60190E00E949D054B1438F4A7
:10054C00B60180E390E00E949D05BA94F7CF4A94DF
:10055C00E1E0F0E0EC0FFD1FE40DF11D8081B60130
:10056C0090E00E949D054110F2CF002309F42CCE9F
:10057C00B60180E290E00E949D050150F6CFF60195
:10058C008781908502C08FEF9FEF6296CDBFDEBF53
:10059C00DF91CF911F910F91FF90EF90DF90CF9053
:1005AC00BF90AF909F908F907F906F904F903F90A7
:0405BC002F900895DF
:1005C000CF92DF92EF92FF920F931F9380915C4046
:1005D0008A3009F097C08091344090913540A091C5
:1005E0003640B09137408093444090934540A0936B
:1005F0004640B09347408091304090913140A09167
:100600003240B09133408093404090934140A0935A
:100610004240B09343406091444070914540809186
:100620004640909147400F2EFAE0CF2ED12CE12C7E
:10063000F12CF02DA70196010E94280720933C4041
:1006400030933D4040933E4050933F406091404046
:10065000709141408091424090914340A7019601A2
:100660000E942807209338403093394040933A4005
:1006700050933B40209138403091394040913A406E
:1006800050913B40C0903C40D0903D40E0903E4077
:10069000F0903F40A4E6B0E00E949008A7019601C8
:1006A0000E94280720932C4030932D4040932E40E9
:1006B00050932F4020913C4030913D4040913E402E
:1006C00050913F4060E076E38EE691E00E9428077B
:1006D000209328403093294040932A4050932B4048
:1006E00010923440109235401092364010923740AC
:1006F00010923040109231401092324010923340AC
:1007000010925C4080915D40813009F04FC0609153
:100710002C4070912D4080912E4090912F4000915F
:1007200028401091294020912A4030912B40C090C0
:100730002C40D0902D40E0902E40F0902F403F93E1
:100740002F931F930F932AE030E040E050E00E9487
:1007500028077F936F93FF92EF92DF92CF9282E50B
:1007600091E0A0E0AF939F938F9380E090E49F93FC
:100770008F930E94FE0680E090E40E940E08109283
:100780005D4010922C4010922D4010922E401092FD
:100790002F40109228401092294010922A40109227
:1007A0002B408DB79EB70F968DBF9EBF1F910F91A7
:0A07B000FF90EF90DF90CF900895C6
:1007BA00CF93DF930E94110640E054E0FA011082C1
:1007CA0020E234E080E1F901808380E494E0FC01D6
:1007DA001082C0E6D4E01882A0E8B4E01C9260EA75
:1007EA0074E0FB011082FA011482F9011482FC01FF
:1007FA0014821C8214961C921497FB011482FA012B
:10080A00108A118A128A138A148A158A168A178AF2
:10081A00F901108A118A128A138A148A158A168A89
:10082A00178AFC01108A118A128A138A148A158A75
:10083A00168A178A188A198A1A8A1B8A1C8A1D8A92
:10084A001E8A1F8A50961C92509751961C92519755
:10085A0052961C92529753961C92539754961C92F6
:10086A00549755961C92559756961C92569757969A
:10087A001C925797FB01108A118A128A138A148ACA
:10088A00158A168A178AFA01138616861586148619
:10089A00F9011386168615861486FC0113861686B8
:1008AA00158614861B861E861D861C861B961C9220
:1008BA001B971E961C921E971D961C921D971C969E
:1008CA001C92FB011386168615861486E0EEF5E067
:1008DA001186118210821482168284E08783108620
:0E08EA001582128213821286DF91CF9108953B
:1008F800FA01AA27283051F1203181F1E8946F9349
:100908006E7F6E5F7F4F8F4F9F4FAF4FB1E03ED0EE
:10091800B4E03CD0670F781F891F9A1FA11D680F8C
:10092800791F8A1F911DA11D6A0F711D811D911DBF
:10093800A11D20D009F468943F912AE0269F112434
:100948003019305D3193DEF6CF010895462F477098
:10095800405D4193B3E00FD0C9F7F6CF462F4F70F3
:10096800405D4A3318F0495D31FD4052419302D051
:10097800A9F7EACFB4E0A6959795879577956795F7
:10098800BA95C9F700976105710508959B01AC01F7
:100998000A2E06945795479537952795BA95C9F71E
:0C09A800620F731F841F951FA01D08958F
:1009B4001F920F920FB60F9211240BB60F922F9322
:1009C4003F934F935F936F937F938F939F93AF93D3
:1009D400BF93EF93FF938091260B80FF0AC0E091B1
:1009E4004840F0914940309709F0099581E080939F
:1009F400260B8091260B81FF0AC0E0914A40F091BA
:100A04004B40309709F0099582E08093260BFF91C3
:100A1400EF91BF91AF919F918F917F916F915F9172
:100A24004F913F912F910F900BBE0F900FBE0F90DF
:040A34001F90189562
:100A3800E0E0F2E086E4808B118A128A138A148A35
:100A4800158A168A178A108E118E81E0808311828A
:100A580014A610A211A212A213A214A215A216A2E1
:100A680017A210A611A612A613A616A617A610AAB4
:100A780011AA12AA13AA15A613AE14AE15AE16AE75
:100A880017AE1092400210924102109242028093D7
:100A980043021092440210924502109246021092AC
:100AA800490210924A0215AA16AA17AA10AE11AE48
:040AB80080E008953D
:100ABC001F920F920FB60F9211240BB60F922F9319
:100ACC003F934F935F936F937F938F939F93AF93CA
:100ADC00BF93EF93FF938091430180FF07C0E09198
:100AEC005440F0915540309709F00995809143019D
:100AFC0081FF07C0E0915240F0915340309709F0CC
:100B0C00099583E080934301FF91EF91BF91AF91E1
:100B1C009F918F917F916F915F914F913F912F9109
:0E0B2C000F900BBE0F900FBE0F901F901895EC
:100B3A000F931F93CF93DF93FB01248121FD03C001
:100B4A008FEF9FEF2CC022FF16C047815085258169
:100B5A0036814217530744F4A081B1819D012F5F6A
:100B6A003F4F208331838C93278130852F5F3F4FFE
:100B7A002783308714C08B01EC01FB010184F285C5
:100B8A00E02D0995892BE1F6D80117968D919C9154
:100B9A001897019617968D939C931897CE01DF911B
:080BAA00CF911F910F910895F6
:100BB20080915C408A3098F5E0E2FBE0248535853F
:100BC2008091304090913140A0913240B0913340B9
:100BD200820F931FA11DB11D80933040909331402D
:100BE200A0933240B09333402285338580913440C4
:100BF20090913540A0913640B0913740820F931FBB
:100C0200A11DB11D8093344090933540A09336408E
:100C1200B093374080915C408F5F80935C40089531
:100C2200E0E9F4E0808188608193E83984E0F807A4
:100C3200C9F7E0EBF4E0808188608193E83B84E0CF
:100C4200F807C9F7E0E1F4E0808188608193E83138
:100C520084E0F807C9F7E0E3F4E0808188608193DB
:100C6200E83384E0F807C9F7E0E5F4E080818860C2
:100C72008193E83584E0F807C9F7E0E7F4E0808182
:0E0C820088608193E83784E0F807C9F7089589
:100C90001F920F920FB60F9211240BB60F922F9343
:100CA0003F934F935F936F937F938F939F93AF93F4
:100CB000BF93EF93FF93E0915040F09151403097F4
:100CC00009F0099581E080935301FF91EF91BF9165
:100CD000AF919F918F917F916F915F914F913F91D4
:100CE0002F910F900BBE0F900FBE0F901F90189575
:100CF0001F920F920FB60F9211240BB60F922F93E3
:100D00003F934F935F936F937F938F939F93AF9393
:100D1000BF93EF93FF93E0914E40F0914F40309797
:100D200009F00995FF91EF91BF91AF919F918F913C
:100D30007F916F915F914F913F912F910F900BBEDB
:0A0D40000F900FBE0F901F90189542
:100D4A001F920F920FB60F9211240BB60F922F9388
:100D5A003F934F935F936F937F938F939F93AF9339
:100D6A00BF93EF93FF93E0914C40F0914D40309741
:100D7A0009F00995FF91EF91BF91AF919F918F91E2
:100D8A007F916F915F914F913F912F910F900BBE81
:0A0D9A000F900FBE0F901F901895E8
:100DA40040E068ED88E790E00E94B70840E068ED15
:100DB4008CE790E00E94B70840E168ED81E690E09E
:100DC4000E94B70840E068ED80E690E00E94B70812
:100DD40040E068ED83E690E00E94B70844E268EDE5
:100DE40088E690E00E94B70840E068ED82E690E073
:080DF4000E94B70880E0089599
:100DFC000F931F93CF93DF93CDB7DEB72F97CDBF54
:100E0C00DEBF0E891F8986E08D8309831A838FEFDD
:100E1C009FE78E839F839E01255E3F4F488D598DA2
:100E2C006A8DCE0101960E94BE00E885F985E00F1F
:100E3C00F11F10822F96CDBFDEBFDF91CF911F9196
:040E4C000F91089565
:100E5000A1E21A2EAA1BBB1BFD010DC0AA1FBB1FBE
:100E6000EE1FFF1FA217B307E407F50720F0A21B30
:100E7000B30BE40BF50B661F771F881F991F1A949D
:100E800069F760957095809590959B01AC01BD01C7
:040E9000CF010895F1
:100E940080915640882389F0E0915740EF5FE770D6
:100EA400E0935740F0E0E85EFF4B80818093220896
:100EB40080915640815080935640809156408111D4
:0E0EC40005C0E0E2F8E085818F7D858308950A
:100ED200209158402F5F2770909156409830E1F34F
:100EE200E22FF0E0E85EFF4B8083209358400FB67C
:100EF200F8940F92809156408F5F809356400F90E6
:0E0F02000FBEE0E2F8E08581806285830895ED
:100F1000E0E4F1E081818111FDCFE0E4F1E01486AD
:100F20001586108611868FEF9FEF82879387178231
:100F300081E08283808381898111FDCFE0E4F1E04B
:0C0F400081E0828B81E7808B80E00895C7
:100F4C00E0E2F8E081E493E08087918780ED85838F
:100F5C0080EC868383E08783138614861686158639
:100F6C0010925A4010925B40109259401092574088
:0A0F7C00109258401092564008955C
:100F8600CF92DF92EF926B01E82E9A01A82FCB0148
:100F96002115310531F48C199D09EF90DF90CF9022
:100FA6000895FC015A2F0E94AB086623A1F301960F
:080FB600A11D21503109ECCF0F
:100FBE001F920F920FB60F9211240BB60F928F93B2
:100FCE00EF93FF93E0E2F8E0848180648483FF91E5
:100FDE00EF918F910F900BBE0F900FBE0F901F9041
:020FEE00189554
:100FF00090912008E0915B40EF5FE77080915A404C
:10100000E81759F0E0935B40F0E0E05EFF4B90831F
:0C101000809159408F5F809359400895F3
:10101C000F931F93CF93FC018081882359F08F018C
:10102C00C0E00E946907CF5FF801EC0FF11D8081D1
:0C103C008111F7CFCF911F910F91089503
:101048000E94DD030E9484080E94A3080E949B0856
:101058000E94D2060E9439080E941C050E94880737
:0A1068000E946A080E94A60708957E
:10107200E0E2FBE087E490E084879587128613869E
:1010820085E08183108681E08483858316821186C0
:06109200808380E0089558
:101098001F920F920FB60F9211248F9381E08093C5
:0E10A8008A008F910F900FBE0F901F90189529
:1010B600A29FB001B39FC001A39F700D811D112493
:0E10C600911DB29F700D811D1124911D089582
:1010D40040E068ED80E191E00E94B708E0E1F1E0D2
:0A10E40012821382789480E00895D0
:1010EE000E94240881EC98E00E94BC0889ED95E0EE
:0A10FE000E94B2080E94E002FDCF3C
:1011080040E068ED80E890E00E94B708E0E8F0E091
:081118001186108680E00895A5
:101120000E945B08A59F900DB49F900DA49F800D19
:06113000911D1124089539
:1011360040E068ED80E590E00E94B70880E0089501
:1011460040E068ED80E091E00E94B70880E00895F5
:0E11560057FD03C05BBF679108956081089547
:0A116400809348409093494008959D
:0A116E001BBEFC0164BF408308951E
:0A1178008093504090935140089579
:0811820081E080935D400895B7
:04118A000C940000C1
:02118E004A070E
:02119000F8075E
:02000004008278
:090000000000000000C000000037
:00000001FF
